:0400000007EF00F016
:0A000800308201ED04F04AEF09F028
:1008000000000600E1CF14F0E2CF15F0D9CF16F0CA
:10081000DACF17F0F3CF18F0F4CF19F0F29EF2A46C
:1008200014EF04F016EF04F037EF05F0F294FFEC4C
:1008300007F022EEE2F010EE03F0DE50E126DD508C
:10084000E222E604D8A427EF04F029EF04F095EFA4
:1008500004F022EEE2F010EE06F0DE50E126DD506C
:10086000E222E0CFE7FF22EEE2F010EE08F0DE50E9
:10087000E126DD50E222D8CFE7FF22EEE2F010EED3
:1008800007F0DE50E126DD50E222E8CFE7FF22EE5E
:10089000E2F010EE69F0DE50E126DD50E222E76A78
:1008A00084EF04F022EEE2F010EE69F0DE50E12673
:1008B000DD50E222E7500D6E0D50030DF3CF0EF028
:1008C000F4CF0FF022EEE2F0DECF10F0DDCF11F02A
:1008D0000E501024126E0F501120136E090E1224A8
:1008E000D96E000E1320DA6EFDCFDEFFFECFDEFFE5
:1008F000FFCFDEFF22EEE2F010EE69F0DE50E126DF
:10090000DD50E222E72A0600FC50D8A48AEF04F06A
:100910008CEF04F052EF04F022EEE2F010EE03F060
:10092000DE50E126DD50E222E76A76EC09F022EEA5
:10093000E2F010EE03F0DE50E126DD50E222E75057
:10094000D8A4A5EF04F0A7EF04F037EF05F022EEEE
:10095000E2F010EE06F0DE50E126DD50E222E75034
:10096000E06E22EEE2F010EE08F0DE50E126DD50FF
:10097000E222E750D86E22EEE2F010EE07F0DE50F1
:10098000E126DD50E222E7500D6E0D50FC6A22EEAA
:10099000E2F010EE69F0DE50E126DD50E222E75091
:1009A000D8A4D5EF04F0D7EF04F0EBEF04F0050086
:1009B00022EEE2F010EE01F0DE50E126DD50E22200
:1009C000E6CF0DF0E5CF0EF00DC0FDFF0EC0FEFF2F
:1009D000FF6A2DEF05F0050022EEE2F010EE69F05F
:1009E000DE50E126DD50E222E70622EEE2F010EED4
:1009F00069F0DE50E126DD50E222E7500D6E0D5029
:100A0000030DF3CF0EF0F4CF0FF022EEE2F0DECFC5
:100A100010F0DDCF11F00E501024126E0F50112087
:100A2000136E090E1224D96E000E1320DA6EDECF7B
:100A3000FDFFDECFFEFFDDCFFFFF22EEE2F010EE86
:100A400069F0DE50E126DD50E222E750D8A42BEF1A
:100A500005F02DEF05F0EBEF04F022EEE2F010EEE2
:100A600003F0DE50E126DD50E222010EE76EF28E49
:100A700019C0F4FF18C0F3FF17C0DAFF16C0D9FF82
:100A800015C0E2FF14C0E1FF309211002D6EF29EFE
:100A900022EEE2F010EE05F0DE50E126DD50E2221B
:100AA0002DC0E7FF22EEE2F010EE03F0DE50E1266B
:100AB000DD50E222E604D8A460EF05F062EF05F015
:100AC000CFEF05F022EEE2F010EE06F0DE50E12668
:100AD000DD50E222E0CFE7FF22EEE2F010EE08F078
:100AE000DE50E126DD50E222D8CFE7FF22EEE2F031
:100AF00010EE07F0DE50E126DD50E222E8CFE7FFFE
:100B000022EEE2F010EE69F0DE50E126DD50E22246
:100B1000E76ABDEF05F022EEE2F010EE69F0DE507C
:100B2000E126DD50E222E750266E2650030DF3CF7A
:100B300027F0F4CF28F022EEE2F0DECF29F0DDCF6F
:100B40002AF0275029242B6E28502A202C6E090EBB
:100B50002B24D96E000E2C20DA6EFDCFDEFFFECFE7
:100B6000DEFFFFCFDEFF22EEE2F010EE69F0DE5096
:100B7000E126DD50E222E72A0600FC50D8A4C3EFAC
:100B800005F0C5EF05F08BEF05F022EEE2F010EE78
:100B900003F0DE50E126DD50E222020EE76E6FEC3C
:100BA00009F022EEE2F010EE03F0DE50E126DD5017
:100BB000E222E750D8A4DFEF05F0E1EF05F071EF96
:100BC00006F022EEE2F010EE06F0DE50E126DD50F7
:100BD000E222E750E06E22EEE2F010EE08F0DE5086
:100BE000E126DD50E222E750D86E22EEE2F010EE70
:100BF00007F0DE50E126DD50E222E750266E265057
:100C0000FC6A22EEE2F010EE69F0DE50E126DD50E3
:100C1000E222E750D8A40FEF06F011EF06F025EF1F
:100C200006F0050022EEE2F010EE01F0DE50E126C3
:100C3000DD50E222E6CF26F0E5CF27F026C0FDFF0B
:100C400027C0FEFFFF6A67EF06F0050022EEE2F024
:100C500010EE69F0DE50E126DD50E222E70622EEDA
:100C6000E2F010EE69F0DE50E126DD50E222E750BE
:100C7000266E2650030DF3CF27F0F4CF28F022EE96
:100C8000E2F0DECF29F0DDCF2AF0275029242B6EA9
:100C900028502A202C6E090E2B24D96E000E2C20F1
:100CA000DA6EDECFFDFFDECFFEFFDDCFFFFF22EEEF
:100CB000E2F010EE69F0DE50E126DD50E222E7506E
:100CC000D8A465EF06F067EF06F025EF06F022EEF8
:100CD000E2F010EE03F0DE50E126DD50E222010EDC
:100CE000E76EF28E120022EEE2F010EE01F0DE501E
:100CF000E126DD50E222E6CF1AF0E5CF1BF043EC0F
:100D000008F0256E246A010E25241A6E1B6A000E57
:100D10001B22E1C222F022501C6E1D6A51EC07F02A
:100D20001A50256E25506A0DD00EF324D96E000E90
:100D3000F420DA6EC00EDE1807E1110EDE18D8A41A
:100D4000A4EF06F0A6EF06F0B5EF06F0242A010E98
:100D50002464ADEF06F0AFEF06F0B5EF06F0CF0E6E
:100D6000206E000E216EE1EF06F025506A0DD20EC6
:100D7000F324D96E000EF420DA6EDF50D8A4C3EF4E
:100D800006F0C5EF06F083EF06F025506A0DD00E91
:100D9000F324D96E000EF420DA6EC00EDE1809E1DD
:100DA000110EDE18D8B4D7EF06F0D9EF06F083EFB6
:100DB00006F025506A0DCF0EF324206E000EF420AD
:100DC000216E120022EEE2F010EE01F0DE50E1267C
:100DD000DD50E222E6CF01F0E5CF02F06BEC08F047
:100DE0000C6E0B6A010E0C24016E026A000E0222C8
:100DF000E1C209F00950036E046AA8EC07F0015043
:100E00000C6E0C506A0DD00EF324D96E000EF42037
:100E1000DA6EC00EDE1807E1110EDE18D8A413EF4B
:100E200007F015EF07F024EF07F00B2A010E0B6413
:100E30001CEF07F01EEF07F024EF07F0CF0E076E50
:100E4000000E086E50EF07F00C506A0DD20EF3241E
:100E5000D96E000EF420DA6EDF50D8A432EF07F01E
:100E600034EF07F0F2EF06F00C506A0DD00EF324C9
:100E7000D96E000EF420DA6EC00EDE1809E1110EF4
:100E8000DE18D8B446EF07F048EF07F0F2EF06F0AF
:100E90000C506A0DCF0EF324076E000EF420086E7E
:100EA00012001F6A1BBE59EF07F057EF07F05FEF04
:100EB00007F01A6C1B1ED8B01B2A010E1F6E1DBE38
:100EC00066EF07F064EF07F06AEF07F01C6C1D1E79
:100ED000D8B01D2A1C501D10D8B471EF07F073EF65
:100EE00007F097EF07F0010E1E6E7BEF07F0D8902A
:100EF0001C361D361E2A1DAE80EF07F082EF07F06C
:100F000077EF07F01C501A5C1D501B58D8A08BEFD0
:100F100007F08DEF07F091EF07F01C501A5E1D509F
:100F20001B5AD8901D321C321E2E82EF07F01F5024
:100F3000D8B49DEF07F09FEF07F0A3EF07F01A6C0E
:100F40001B1ED8B01B2A1AC01AF01BC01BF01200BF
:100F5000066A02BEB0EF07F0AEEF07F0B6EF07F09B
:100F6000016C021ED8B0022A010E066E04BEBDEF4F
:100F700007F0BBEF07F0C1EF07F0036C041ED8B019
:100F8000042A03500410D8B4C8EF07F0CAEF07F0E2
:100F9000EEEF07F0010E056ED2EF07F0D8900336A2
:100FA0000436052A04AED7EF07F0D9EF07F0CEEFED
:100FB00007F00350015C04500258D8A0E2EF07F09C
:100FC000E4EF07F0E8EF07F00350015E0450025A27
:100FD000D89004320332052ED9EF07F00650D8B46A
:100FE000F4EF07F0F6EF07F0FAEF07F0016C021EDE
:100FF000D8B0022A01C001F002C002F01200010EB6
:10100000026E37EF08F002506A0DD20EF324D96E4B
:10101000000EF420DA6E020EDE18D8A412EF08F0EB
:1010200014EF08F036EF08F002506A0DD40EF324E6
:10103000D96E000EF420DA6EDF0602506A0DD40E6F
:10104000F324D96E000EF420DA6EDF50D8A42BEF13
:1010500008F02DEF08F036EF08F002506A0DD20EBE
:10106000F324D96E000EF420DA6EDF6A022A22EE33
:10107000E1F0DE50025CD8A040EF08F042EF08F04B
:1010800003EF08F012001E6A5EEF08F01E506A0DB2
:10109000D00EF324D96E000EF420DA6E1A50DE184A
:1010A00007E11B50DE18D8A458EF08F05AEF08F0FB
:1010B0005DEF08F01E506AEF08F01E2A22EEE1F004
:1010C000DE501E5CD8A067EF08F069EF08F046EF2D
:1010D00008F0000E1200056A86EF08F005506A0D50
:1010E000D00EF324D96E000EF420DA6E0150DE1813
:1010F00007E10250DE18D8A480EF08F082EF08F074
:1011000085EF08F0055092EF08F0052A22EEE1F095
:10111000DE50055CD8A08FEF08F091EF08F06EEF7D
:1011200008F0000E12000001646F64C065F060C03A
:1011300066F061C067F062C069F00001686B6B6BBC
:101140006D6B6C6BCE6B20EE65F0E1C263F06351AA
:101150006A0DCF0EF324E16E000EF420E26E690EEC
:10116000DBCFE3FFE806FCE2E1C2E8FF010FE8CFD6
:10117000E1F2120023EC09F06E0E0001606F120E16
:10118000616F050E626F640E93EC08F0EE0E0001C5
:10119000606F110E616F050E626F650E93EC08F0C3
:1011A0001C0E0001606F120E616F050E626F660EFD
:1011B00093EC08F067EC09F0DCEF08F007EF00F0C3
:1011C000959683B6E6EF08F0E9EF08F0010EEAEF36
:1011D00008F0000EFF0A016E0146014601468C50E0
:1011E0000118F70B01188C6EE1EF08F0120083B2C2
:1011F000FCEF08F0FFEF08F0010E00EF09F0000E21
:10120000FF0A2E6E2E468C502E18FD0B2E188C6E5B
:10121000C80E46EC05F0F7EF08F0120083B413EFA8
:1012200009F016EF09F0010E17EF09F0000EFF0AA2
:101230002F6E2F462F468C502F18FB0B2F188C6EBD
:101240000EEF09F01200000EE8CFE1F2000EE8CF39
:10125000E2F2000EE8CFE3F2C00E0001606F110E63
:10126000616F010E626F000E93EC08F0120083B004
:101270003CEF09F03FEF09F0010E40EF09F0000EDE
:10128000FF0A196E8C501918FE0B19188C6E37EF67
:1012900009F0120000EECFF012EE15F0EE6AE55004
:1012A000E150FCE1E250FAE1309030920001BAEFF7
:1012B00008F0D59AD596D550F80B0609D56E000ED4
:1012C000D76E800ED66EF28AF294D58E120081EC23
:1012D00009F07DEC09F059EC09F0F28E120073EC84
:1012E00006F020C0E2F221C0E3F21200E2EC06F0C8
:1012F00007C0E2F208C0E3F212009594959295902F
:061300001200F28C120045
:00000001FF
