:0400000007EF00F016
:0A0008001C8201ED04F0F7EF06F092
:1008000000000600E1CF14F0E2CF15F0D9CF16F0CA
:10081000DACF17F0F3CF18F0F4CF19F0F29EF2A46C
:1008200014EF04F016EF04F037EF05F0F2940CEC3F
:1008300006F022EEDEF010EE03F0DE50E126DD5091
:10084000E222E604D8A427EF04F029EF04F095EFA4
:1008500004F022EEDEF010EE06F0DE50E126DD5070
:10086000E222E0CFE7FF22EEDEF010EE08F0DE50ED
:10087000E126DD50E222D8CFE7FF22EEDEF010EED7
:1008800007F0DE50E126DD50E222E8CFE7FF22EE5E
:10089000DEF010EE69F0DE50E126DD50E222E76A7C
:1008A00084EF04F022EEDEF010EE69F0DE50E12677
:1008B000DD50E222E7500D6E0D50030DF3CF0EF028
:1008C000F4CF0FF022EEDEF0DECF10F0DDCF11F02E
:1008D0000E501024126E0F501120136E090E1224A8
:1008E000D96E000E1320DA6EFDCFDEFFFECFDEFFE5
:1008F000FFCFDEFF22EEDEF010EE69F0DE50E126E3
:10090000DD50E222E72A0600FC50D8A48AEF04F06A
:100910008CEF04F052EF04F022EEDEF010EE03F064
:10092000DE50E126DD50E222E76A33EC07F022EEEA
:10093000DEF010EE03F0DE50E126DD50E222E7505B
:10094000D8A4A5EF04F0A7EF04F037EF05F022EEEE
:10095000DEF010EE06F0DE50E126DD50E222E75038
:10096000E06E22EEDEF010EE08F0DE50E126DD5003
:10097000E222E750D86E22EEDEF010EE07F0DE50F5
:10098000E126DD50E222E7500D6E0D50FC6A22EEAA
:10099000DEF010EE69F0DE50E126DD50E222E75095
:1009A000D8A4D5EF04F0D7EF04F0EBEF04F0050086
:1009B00022EEDEF010EE01F0DE50E126DD50E22204
:1009C000E6CF0DF0E5CF0EF00DC0FDFF0EC0FEFF2F
:1009D000FF6A2DEF05F0050022EEDEF010EE69F063
:1009E000DE50E126DD50E222E70622EEDEF010EED8
:1009F00069F0DE50E126DD50E222E7500D6E0D5029
:100A0000030DF3CF0EF0F4CF0FF022EEDEF0DECFC9
:100A100010F0DDCF11F00E501024126E0F50112087
:100A2000136E090E1224D96E000E1320DA6EDECF7B
:100A3000FDFFDECFFEFFDDCFFFFF22EEDEF010EE8A
:100A400069F0DE50E126DD50E222E750D8A42BEF1A
:100A500005F02DEF05F0EBEF04F022EEDEF010EEE6
:100A600003F0DE50E126DD50E222010EE76EF28E49
:100A700019C0F4FF18C0F3FF17C0DAFF16C0D9FF82
:100A800015C0E2FF14C0E1FF1C92110022EEDEF05F
:100A900010EE01F0DE50E126DD50E222E6CF01F05B
:100AA000E5CF02F050EC06F00C6E0B6A010E0C2440
:100AB000016E026A000E0222DDC209F00950036EC7
:100AC000046AB5EC05F001500C6E0C506A0DCC0EAA
:100AD000F324D96E000EF420DA6E720EDE1807E1F0
:100AE0000D0EDE18D8A477EF05F079EF05F088EF4A
:100AF00005F00B2A010E0B6480EF05F082EF05F084
:100B000088EF05F0CB0E076E000E086EB4EF05F00F
:100B10000C506A0DCE0EF324D96E000EF420DA6E5E
:100B2000DF50D8A496EF05F098EF05F056EF05F0EA
:100B30000C506A0DCC0EF324D96E000EF420DA6E40
:100B4000720EDE1809E10D0EDE18D8B4AAEF05F01A
:100B5000ACEF05F056EF05F00C506A0DCB0EF32408
:100B6000076E000EF420086E1200066A02BEBDEF8A
:100B700005F0BBEF05F0C3EF05F0016C021ED8B025
:100B8000022A010E066E04BECAEF05F0C8EF05F09A
:100B9000CEEF05F0036C041ED8B0042A03500410F5
:100BA000D8B4D5EF05F0D7EF05F0FBEF05F0010E57
:100BB000056EDFEF05F0D89003360436052A04AE43
:100BC000E4EF05F0E6EF05F0DBEF05F00350015C24
:100BD00004500258D8A0EFEF05F0F1EF05F0F5EF63
:100BE00005F00350015E0450025AD89004320332DB
:100BF000052EE6EF05F00650D8B401EF06F003EF3E
:100C000006F007EF06F0016C021ED8B0022A01C000
:100C100001F002C002F01200010E026E44EF06F075
:100C200002506A0DCE0EF324D96E000EF420DA6E57
:100C3000020EDE18D8A41FEF06F021EF06F043EFF6
:100C400006F002506A0DD00EF324D96E000EF42087
:100C5000DA6EDF0602506A0DD00EF324D96E000E54
:100C6000F420DA6EDF50D8A438EF06F03AEF06F041
:100C700043EF06F002506A0DCE0EF324D96E000E3B
:100C8000F420DA6EDF6A022A22EEDDF0DE50025C2A
:100C9000D8A04DEF06F04FEF06F010EF06F012006F
:100CA000056A6BEF06F005506A0DCC0EF324D96E81
:100CB000000EF420DA6E0150DE1807E10250DE1853
:100CC000D8A465EF06F067EF06F06AEF06F005506E
:100CD00077EF06F0052A22EEDDF0DE50055CD8A0A5
:100CE00074EF06F076EF06F053EF06F0000E1200F8
:100CF0000001606F60C061F00EC062F00FC063F071
:100D000010C065F00001646B676B696B686BCA6B40
:100D100020EE61F0DDC211F011506A0DCB0EF3240C
:100D2000E16E000EF420E26E690EDBCFE3FFE80611
:100D3000FCE2DDC2E8FF010FE8CFDDF21200E4ECD7
:100D400006F04A0E0E6E0E0E0F6E050E106E640E3D
:100D500078EC06F0580E0E6E0E0E0F6E050E106E2D
:100D6000650E78EC06F016EC07F0B5EF06F007EF2D
:100D700000F0959683B6BFEF06F0C2EF06F0010EC5
:100D8000C3EF06F0000EFF0A016E01460146014660
:100D90008C500118F70B01188C6EBAEF06F0120098
:100DA0000B50D96EDA6ADE50DE10D8A4DAEF06F006
:100DB000DCEF06F0E3EF06F00B50D96EDA6A010EB5
:100DC000DE6E000EDD6E1200000EE8CFDDF2000ECA
:100DD000E8CFDEF2000EE8CFDFF2720E0E6E0D0EDF
:100DE0000F6E010E106E000E78EC06F0120000EE91
:100DF000CBF012EE15F0EE6AE550E150FCE1E25066
:100E0000FAE11B6A1A6A1C901C9200019FEF06F01F
:100E1000D59AD596D550F80B0609D56E000ED76E2B
:100E2000800ED66EF28AF294D58E120040EC07F056
:100E30001EEC07F008EC07F0F28E120095909592E8
:100E4000959495969588958A12001A0E0B6ED0ECA3
:100E500006F029EF07F012001A0E0B6ED0EC06F028
:100E600030EF07F0120046EC05F007C0DEF208C0D4
:100E7000DFF212000B50D96EDA6ADE6ADD6A120008
:040E8000F28C1200DE
:00000001FF
