:0400000007EF00F016
:0A0008003C8201ED04F0AAEF07F0BE
:1008000000000600E1CF2FF0E2CF30F0D9CF31F079
:10081000DACF32F0F3CF33F0F4CF34F0F29EF2A41B
:1008200014EF04F016EF04F037EF05F0F294E0EC6B
:1008300006F022EEFAF010EE03F0DE50E126DD5075
:10084000E222E604D8A427EF04F029EF04F095EFA4
:1008500004F022EEFAF010EE06F0DE50E126DD5054
:10086000E222E0CFE7FF22EEFAF010EE08F0DE50D1
:10087000E126DD50E222D8CFE7FF22EEFAF010EEBB
:1008800007F0DE50E126DD50E222E8CFE7FF22EE5E
:10089000FAF010EE69F0DE50E126DD50E222E76A60
:1008A00084EF04F022EEFAF010EE69F0DE50E1265B
:1008B000DD50E222E750286E2850030DF3CF29F0D7
:1008C000F4CF2AF022EEFAF0DECF2BF0DDCF2CF0C1
:1008D00029502B242D6E2A502C202E6E090E2D24EB
:1008E000D96E000E2E20DA6EFDCFDEFFFECFDEFFCA
:1008F000FFCFDEFF22EEFAF010EE69F0DE50E126C7
:10090000DD50E222E72A0600FC50D8A48AEF04F06A
:100910008CEF04F052EF04F022EEFAF010EE03F048
:10092000DE50E126DD50E222E76A10EC08F022EE0C
:10093000FAF010EE03F0DE50E126DD50E222E7503F
:10094000D8A4A5EF04F0A7EF04F037EF05F022EEEE
:10095000FAF010EE06F0DE50E126DD50E222E7501C
:10096000E06E22EEFAF010EE08F0DE50E126DD50E7
:10097000E222E750D86E22EEFAF010EE07F0DE50D9
:10098000E126DD50E222E750286E2850FC6A22EE74
:10099000FAF010EE69F0DE50E126DD50E222E75079
:1009A000D8A4D5EF04F0D7EF04F0EBEF04F0050086
:1009B00022EEFAF010EE01F0DE50E126DD50E222E8
:1009C000E6CF28F0E5CF29F028C0FDFF29C0FEFFC3
:1009D000FF6A2DEF05F0050022EEFAF010EE69F047
:1009E000DE50E126DD50E222E70622EEFAF010EEBC
:1009F00069F0DE50E126DD50E222E750286E2850F3
:100A0000030DF3CF29F0F4CF2AF022EEFAF0DECF77
:100A10002BF0DDCF2CF029502B242D6E2A502C20CA
:100A20002E6E090E2D24D96E000E2E20DA6EDECF2A
:100A3000FDFFDECFFEFFDDCFFFFF22EEFAF010EE6E
:100A400069F0DE50E126DD50E222E750D8A42BEF1A
:100A500005F02DEF05F0EBEF04F022EEFAF010EECA
:100A600003F0DE50E126DD50E222010EE76EF28E49
:100A700034C0F4FF33C0F3FF32C0DAFF31C0D9FF16
:100A800030C0E2FF2FC0E1FF3C921100FAC2D9FF53
:100A9000FBC2DAFF00017251E16EE26A020EE1264A
:100AA000DE50E618D8B457EF05F059EF05F05BEFCC
:100AB00005F0BCEF05F07251D96EDA6ADE6ADD6AC4
:100AC0007251D96EDA6A020ED926DF6A7251D96E76
:100AD000DA6A0D0ED926DF50D8B471EF05F073EF46
:100AE00005F0BCEF05F07251D96EDA6A0D0ED92609
:100AF000DF067251D96EDA6A030ED926DECF38F0DE
:100B0000DDCF39F020EE03F03850D9263950DA2203
:100B1000DF6A000E3B6E000E3A6EA5EF05F03A500C
:100B2000020D7251F324D96EDA6A050ED9263A50B5
:100B3000020D7251F324E16EE26A030EE126DECF6C
:100B4000E6FFDDCFE5FF3A4A3B2A7251D96EDA6AF9
:100B50000D0ED926DF50356E366A35503A5C3B5063
:100B6000800A376E3650800A3758D8A0BAEF05F0A1
:100B7000BCEF05F08FEF05F01200386A396A000EFD
:100B80003B6E000E3A6E09EF06F06A0E3A02F3CFA2
:100B900035F0F4CF36F03B02F3503626EB0E352419
:100BA000D96E000E3620DA6EDE50385CD8B0DBEF3E
:100BB00005F0DDEF05F007EF06F06A0E3A02F3CF1D
:100BC00035F0F4CF36F03B02F3503626EA0E3524EA
:100BD000D96E000E3620DA6EDF50D8A4F2EF05F0A1
:100BE000F4EF05F007EF06F06A0E3A02F3CF35F0A6
:100BF000F4CF36F03B02F3503626EB0E3524D96E97
:100C0000000E3620DA6EDF50386E3AC039F03A4ABC
:100C10003B2A22EEF9F0DF50356E366A35503A5CE9
:100C20003B50800A376E3650800A3758D8A01BEFE9
:100C300006F01DEF06F0C5EF05F039506A0DE70E1E
:100C4000F3240001726F000EF420736F1200246A07
:100C5000256A000E276E000E266E73EF06F06A0EF0
:100C60002602F3CF21F0F4CF22F02702F350222600
:100C7000EB0E2124D96E000E2220DA6EDE50245CA9
:100C8000D8B045EF06F047EF06F071EF06F06A0EB8
:100C90002602F3CF21F0F4CF22F02702F3502226D0
:100CA000EA0E2124D96E000E2220DA6EDF50D8A47D
:100CB0005CEF06F05EEF06F071EF06F06A0E2602BA
:100CC000F3CF21F0F4CF22F02702F3502226EB0ECF
:100CD0002124D96E000E2220DA6EDF50246E26C049
:100CE00025F0264A272A22EEF9F0DF50216E226AEB
:100CF0002150265C2750800A236E2250800A2358F8
:100D0000D8A085EF06F087EF06F02FEF06F025500C
:100D10006A0DE70EF3241F6E000EF420206E120001
:100D200000017451D96EDA6ADE50DE10D8B49BEF40
:100D300006F09DEF06F0C9EF06F022EEFAF07451CE
:100D4000E16EE26A0D0EE126E750020D7451F324C4
:100D5000E16EE26A030EE126DECFE6FFDDCFE5FFBE
:100D60007451D96EDA6A0D0ED926DF2A22EEFAF016
:100D700010EE03F0DE50E126DD50E222020EE76EB7
:100D800008EC08F0000E0001756F000E746FDFEFC5
:100D900006F07451D96EDA6A010EDE6E000EDD6E59
:100DA000FAC2D9FFFBC2DAFF7451E16EE26A020EA9
:100DB000E126DFCFE7FF000E756F010E746F1200A2
:100DC000010E206E18EF07F020506A0DEA0EF32492
:100DD000D96E000EF420DA6E020EDE18D8A4F3EFFE
:100DE00006F0F5EF06F017EF07F020506A0DEC0E55
:100DF000F324D96E000EF420DA6EDF0620506A0D5F
:100E0000EC0EF324D96E000EF420DA6EDF50D8A475
:100E10000CEF07F00EEF07F017EF07F020506A0D08
:100E2000EA0EF324D96E000EF420DA6EDF6A202A6F
:100E300022EEF9F0DE50205CD8A021EF07F023EF7E
:100E400007F0E4EF06F0120000017C6F7CC07DF03B
:100E500078C07EF079C07FF07AC081F00001806BAD
:100E6000836B856B846BE66B20EE7DF0F9C27BF0C3
:100E70007B516A0DE70EF324E16E000EF420E26E62
:100E8000690EDBCFE3FFE806FCE2F9C2E8FF010FE1
:100E9000E8CFF9F21200BFEC07F0FC0E0001786F0A
:100EA0000E0E796F050E7A6F640E24EC07F0280E93
:100EB0000001786F0F0E796F050E7A6F650E24ECC6
:100EC00007F000EC08F063EF07F007EF00F09596ED
:100ED00083B66DEF07F070EF07F0010E71EF07F0CA
:100EE000000EFF0A1F6E1F461F461F468C501F181C
:100EF000F70B1F188C6E68EF07F01200110E00013F
:100F0000746F90EC06F0000174517511D8B48BEF3A
:100F100007F08DEF07F07EEF07F0110E726F46ECD1
:100F200005F07EEF07F01200110E0001746F90ECD7
:100F300006F0000174517511D8B4A1EF07F0A3EFCA
:100F400007F094EF07F0110E726F46EC05F094EF86
:100F500007F0120000EEE7F012EE15F0EE6AE55031
:100F6000E150FCE1E250FAE100EE01F01E0EEE6A03
:100F7000E806FDE13C903C9200014BEF07F0000ECB
:100F8000E8CFF9F2000EE8CFFAF2000EE8CFFBF25C
:100F9000CE0E0001786F0E0E796F010E7A6F000E83
:100FA00024EC07F0120000017851D96EDA6ADE6A8B
:100FB000DD6A7851D96EDA6A020ED926DF6A785175
:100FC000D96EDA6A0D0ED926DF6A1200D59AD59647
:100FD000D550F80B0609D56E000ED76E800ED66E72
:100FE000F28AF294D58E12009590959295949596EA
:100FF0009588958A110E0001786FD3EC07F01200E6
:1010000017EC08F0F4EC07F0E6EC07F0F28E1200B3
:10101000BDEC05F0000172C0FAF273C0FBF21200E1
:1010200027EC06F01FC0FAF220C0FBF21200F28C8F
:021030001200AC
:00000001FF
